{
    "_format": "hh-sol-artifact-1",
    "contractName": "projectManager",
    "sourceName": "contracts/projectManager.sol",
    "abi": [
        {
            "inputs": [
                {
                    "internalType": "address",
                    "name": "_owner",
                    "type": "address"
                },
                {
                    "internalType": "address",
                    "name": "_paymentToken",
                    "type": "address"
                },
                {
                    "internalType": "address",
                    "name": "_projectToken",
                    "type": "address"
                }
            ],
            "stateMutability": "nonpayable",
            "type": "constructor"
        },
        {
            "anonymous": false,
            "inputs": [
                {
                    "indexed": true,
                    "internalType": "uint256",
                    "name": "projectId",
                    "type": "uint256"
                },
                {
                    "indexed": false,
                    "internalType": "uint256",
                    "name": "newInitialSupply",
                    "type": "uint256"
                },
                {
                    "indexed": false,
                    "internalType": "uint256",
                    "name": "newPricePerToken",
                    "type": "uint256"
                }
            ],
            "name": "InitialSupplyUpdated",
            "type": "event"
        },
        {
            "anonymous": false,
            "inputs": [
                {
                    "indexed": true,
                    "internalType": "address",
                    "name": "oldOwner",
                    "type": "address"
                },
                {
                    "indexed": true,
                    "internalType": "address",
                    "name": "newOwner",
                    "type": "address"
                }
            ],
            "name": "OwnershipTransferred",
            "type": "event"
        },
        {
            "anonymous": false,
            "inputs": [
                {
                    "indexed": true,
                    "internalType": "address",
                    "name": "owner",
                    "type": "address"
                }
            ],
            "name": "Paused",
            "type": "event"
        },
        {
            "anonymous": false,
            "inputs": [
                {
                    "indexed": false,
                    "internalType": "address",
                    "name": "seller",
                    "type": "address"
                },
                {
                    "indexed": false,
                    "internalType": "uint256",
                    "name": "projectId",
                    "type": "uint256"
                },
                {
                    "indexed": false,
                    "internalType": "uint256",
                    "name": "tokensToSell",
                    "type": "uint256"
                },
                {
                    "indexed": false,
                    "internalType": "uint256",
                    "name": "profit",
                    "type": "uint256"
                }
            ],
            "name": "ProfitSent",
            "type": "event"
        },
        {
            "anonymous": false,
            "inputs": [
                {
                    "indexed": true,
                    "internalType": "uint256",
                    "name": "projectId",
                    "type": "uint256"
                },
                {
                    "indexed": false,
                    "internalType": "uint256",
                    "name": "initialSupply",
                    "type": "uint256"
                },
                {
                    "indexed": false,
                    "internalType": "uint256",
                    "name": "fixedProfitPerMonth",
                    "type": "uint256"
                },
                {
                    "indexed": false,
                    "internalType": "uint256",
                    "name": "pricePerToken",
                    "type": "uint256"
                },
                {
                    "indexed": false,
                    "internalType": "uint256",
                    "name": "targetAmount",
                    "type": "uint256"
                },
                {
                    "indexed": false,
                    "internalType": "uint256",
                    "name": "projectDuration",
                    "type": "uint256"
                }
            ],
            "name": "ProjectInitialized",
            "type": "event"
        },
        {
            "anonymous": false,
            "inputs": [
                {
                    "indexed": true,
                    "internalType": "uint256",
                    "name": "projectId",
                    "type": "uint256"
                },
                {
                    "indexed": false,
                    "internalType": "uint256",
                    "name": "startTime",
                    "type": "uint256"
                },
                {
                    "indexed": false,
                    "internalType": "uint256",
                    "name": "endTime",
                    "type": "uint256"
                }
            ],
            "name": "ProjectStarted",
            "type": "event"
        },
        {
            "anonymous": false,
            "inputs": [
                {
                    "indexed": true,
                    "internalType": "uint256",
                    "name": "projectId",
                    "type": "uint256"
                },
                {
                    "indexed": true,
                    "internalType": "address",
                    "name": "buyer",
                    "type": "address"
                },
                {
                    "indexed": false,
                    "internalType": "uint256",
                    "name": "quantity",
                    "type": "uint256"
                },
                {
                    "indexed": false,
                    "internalType": "uint256",
                    "name": "totalPrice",
                    "type": "uint256"
                }
            ],
            "name": "Resale",
            "type": "event"
        },
        {
            "anonymous": false,
            "inputs": [
                {
                    "indexed": true,
                    "internalType": "uint256",
                    "name": "projectId",
                    "type": "uint256"
                },
                {
                    "indexed": false,
                    "internalType": "uint256",
                    "name": "amount",
                    "type": "uint256"
                }
            ],
            "name": "TenantPaymentAdded",
            "type": "event"
        },
        {
            "anonymous": false,
            "inputs": [
                {
                    "indexed": true,
                    "internalType": "uint256",
                    "name": "projectId",
                    "type": "uint256"
                },
                {
                    "indexed": false,
                    "internalType": "uint256",
                    "name": "oldPricePerToken",
                    "type": "uint256"
                },
                {
                    "indexed": false,
                    "internalType": "uint256",
                    "name": "newPricePerToken",
                    "type": "uint256"
                }
            ],
            "name": "TokenPriceUpdated",
            "type": "event"
        },
        {
            "anonymous": false,
            "inputs": [
                {
                    "indexed": true,
                    "internalType": "address",
                    "name": "owner",
                    "type": "address"
                }
            ],
            "name": "Unpaused",
            "type": "event"
        },
        {
            "anonymous": false,
            "inputs": [
                {
                    "indexed": false,
                    "internalType": "uint256",
                    "name": "projectId",
                    "type": "uint256"
                },
                {
                    "indexed": false,
                    "internalType": "uint256",
                    "name": "newTargetAmount",
                    "type": "uint256"
                },
                {
                    "indexed": false,
                    "internalType": "uint256",
                    "name": "newPricePerToken",
                    "type": "uint256"
                }
            ],
            "name": "UpdatedTargetAmount",
            "type": "event"
        },
        {
            "anonymous": false,
            "inputs": [
                {
                    "indexed": true,
                    "internalType": "address",
                    "name": "owner",
                    "type": "address"
                },
                {
                    "indexed": false,
                    "internalType": "uint256",
                    "name": "amount",
                    "type": "uint256"
                }
            ],
            "name": "WithdrawnFund",
            "type": "event"
        },
        {
            "anonymous": false,
            "inputs": [
                {
                    "indexed": true,
                    "internalType": "address",
                    "name": "seller",
                    "type": "address"
                },
                {
                    "indexed": true,
                    "internalType": "uint256",
                    "name": "projectId",
                    "type": "uint256"
                },
                {
                    "indexed": false,
                    "internalType": "uint256",
                    "name": "tokens",
                    "type": "uint256"
                }
            ],
            "name": "devested",
            "type": "event"
        },
        {
            "anonymous": false,
            "inputs": [
                {
                    "indexed": true,
                    "internalType": "address",
                    "name": "buyer",
                    "type": "address"
                },
                {
                    "indexed": true,
                    "internalType": "uint256",
                    "name": "projectId",
                    "type": "uint256"
                },
                {
                    "indexed": false,
                    "internalType": "uint256",
                    "name": "tokens",
                    "type": "uint256"
                },
                {
                    "indexed": false,
                    "internalType": "uint256",
                    "name": "totalPrice",
                    "type": "uint256"
                }
            ],
            "name": "invested",
            "type": "event"
        },
        {
            "inputs": [
                {
                    "internalType": "uint256",
                    "name": "projectId",
                    "type": "uint256"
                }
            ],
            "name": "addTenantPayment",
            "outputs": [],
            "stateMutability": "nonpayable",
            "type": "function"
        },
        {
            "inputs": [],
            "name": "currentProjectId",
            "outputs": [
                {
                    "internalType": "uint256",
                    "name": "",
                    "type": "uint256"
                }
            ],
            "stateMutability": "view",
            "type": "function"
        },
        {
            "inputs": [
                {
                    "internalType": "uint256",
                    "name": "projectId",
                    "type": "uint256"
                },
                {
                    "internalType": "uint256",
                    "name": "amountToSell",
                    "type": "uint256"
                }
            ],
            "name": "divestFromProject",
            "outputs": [],
            "stateMutability": "nonpayable",
            "type": "function"
        },
        {
            "inputs": [
                {
                    "internalType": "uint256",
                    "name": "initialSupply",
                    "type": "uint256"
                },
                {
                    "internalType": "uint256",
                    "name": "fixedProfitPerMonth",
                    "type": "uint256"
                },
                {
                    "internalType": "uint256",
                    "name": "targetAmount",
                    "type": "uint256"
                },
                {
                    "internalType": "uint256",
                    "name": "projectDuration",
                    "type": "uint256"
                },
                {
                    "internalType": "bytes",
                    "name": "data",
                    "type": "bytes"
                }
            ],
            "name": "initiateProject",
            "outputs": [],
            "stateMutability": "nonpayable",
            "type": "function"
        },
        {
            "inputs": [
                {
                    "internalType": "uint256",
                    "name": "_projectId",
                    "type": "uint256"
                },
                {
                    "internalType": "uint256",
                    "name": "amount",
                    "type": "uint256"
                }
            ],
            "name": "investInProject",
            "outputs": [],
            "stateMutability": "nonpayable",
            "type": "function"
        },
        {
            "inputs": [
                {
                    "internalType": "address",
                    "name": "operator",
                    "type": "address"
                },
                {
                    "internalType": "address",
                    "name": "from",
                    "type": "address"
                },
                {
                    "internalType": "uint256[]",
                    "name": "ids",
                    "type": "uint256[]"
                },
                {
                    "internalType": "uint256[]",
                    "name": "values",
                    "type": "uint256[]"
                },
                {
                    "internalType": "bytes",
                    "name": "data",
                    "type": "bytes"
                }
            ],
            "name": "onERC1155BatchReceived",
            "outputs": [
                {
                    "internalType": "bytes4",
                    "name": "",
                    "type": "bytes4"
                }
            ],
            "stateMutability": "nonpayable",
            "type": "function"
        },
        {
            "inputs": [
                {
                    "internalType": "address",
                    "name": "operator",
                    "type": "address"
                },
                {
                    "internalType": "address",
                    "name": "from",
                    "type": "address"
                },
                {
                    "internalType": "uint256",
                    "name": "id",
                    "type": "uint256"
                },
                {
                    "internalType": "uint256",
                    "name": "value",
                    "type": "uint256"
                },
                {
                    "internalType": "bytes",
                    "name": "data",
                    "type": "bytes"
                }
            ],
            "name": "onERC1155Received",
            "outputs": [
                {
                    "internalType": "bytes4",
                    "name": "",
                    "type": "bytes4"
                }
            ],
            "stateMutability": "nonpayable",
            "type": "function"
        },
        {
            "inputs": [],
            "name": "owner",
            "outputs": [
                {
                    "internalType": "address",
                    "name": "",
                    "type": "address"
                }
            ],
            "stateMutability": "view",
            "type": "function"
        },
        {
            "inputs": [],
            "name": "pause",
            "outputs": [],
            "stateMutability": "nonpayable",
            "type": "function"
        },
        {
            "inputs": [],
            "name": "pauseProjectToken",
            "outputs": [],
            "stateMutability": "nonpayable",
            "type": "function"
        },
        {
            "inputs": [],
            "name": "paused",
            "outputs": [
                {
                    "internalType": "bool",
                    "name": "",
                    "type": "bool"
                }
            ],
            "stateMutability": "view",
            "type": "function"
        },
        {
            "inputs": [],
            "name": "paymentToken",
            "outputs": [
                {
                    "internalType": "address",
                    "name": "",
                    "type": "address"
                }
            ],
            "stateMutability": "view",
            "type": "function"
        },
        {
            "inputs": [
                {
                    "internalType": "uint256",
                    "name": "",
                    "type": "uint256"
                }
            ],
            "name": "projectInfo",
            "outputs": [
                {
                    "internalType": "uint256",
                    "name": "initializationTime",
                    "type": "uint256"
                },
                {
                    "internalType": "uint256",
                    "name": "startTime",
                    "type": "uint256"
                },
                {
                    "internalType": "uint256",
                    "name": "endTime",
                    "type": "uint256"
                },
                {
                    "internalType": "uint256",
                    "name": "fixedProfitPerMonth",
                    "type": "uint256"
                },
                {
                    "internalType": "uint256",
                    "name": "raisedFunds",
                    "type": "uint256"
                },
                {
                    "internalType": "uint256",
                    "name": "receivedEarnings",
                    "type": "uint256"
                },
                {
                    "internalType": "uint256",
                    "name": "pricePerToken",
                    "type": "uint256"
                },
                {
                    "internalType": "uint256",
                    "name": "targetAmount",
                    "type": "uint256"
                },
                {
                    "internalType": "uint256",
                    "name": "projectDuration",
                    "type": "uint256"
                },
                {
                    "internalType": "enum projectManager.ProjectStage",
                    "name": "stage",
                    "type": "uint8"
                }
            ],
            "stateMutability": "view",
            "type": "function"
        },
        {
            "inputs": [],
            "name": "projectToken",
            "outputs": [
                {
                    "internalType": "address",
                    "name": "",
                    "type": "address"
                }
            ],
            "stateMutability": "view",
            "type": "function"
        },
        {
            "inputs": [
                {
                    "internalType": "uint256",
                    "name": "projectId",
                    "type": "uint256"
                },
                {
                    "internalType": "uint256",
                    "name": "numberOfTokenToBuy",
                    "type": "uint256"
                }
            ],
            "name": "purchaseResaleTokens",
            "outputs": [],
            "stateMutability": "nonpayable",
            "type": "function"
        },
        {
            "inputs": [
                {
                    "internalType": "uint256",
                    "name": "projectId",
                    "type": "uint256"
                },
                {
                    "internalType": "uint256",
                    "name": "noOfTokens",
                    "type": "uint256"
                }
            ],
            "name": "quote",
            "outputs": [
                {
                    "internalType": "uint256",
                    "name": "",
                    "type": "uint256"
                }
            ],
            "stateMutability": "view",
            "type": "function"
        },
        {
            "inputs": [
                {
                    "internalType": "uint256",
                    "name": "_projectId",
                    "type": "uint256"
                },
                {
                    "internalType": "uint256",
                    "name": "_endTime",
                    "type": "uint256"
                }
            ],
            "name": "startProject",
            "outputs": [],
            "stateMutability": "nonpayable",
            "type": "function"
        },
        {
            "inputs": [
                {
                    "internalType": "bytes4",
                    "name": "interfaceId",
                    "type": "bytes4"
                }
            ],
            "name": "supportsInterface",
            "outputs": [
                {
                    "internalType": "bool",
                    "name": "",
                    "type": "bool"
                }
            ],
            "stateMutability": "view",
            "type": "function"
        },
        {
            "inputs": [
                {
                    "internalType": "address",
                    "name": "newOwner",
                    "type": "address"
                }
            ],
            "name": "transferOwnership",
            "outputs": [],
            "stateMutability": "nonpayable",
            "type": "function"
        },
        {
            "inputs": [
                {
                    "internalType": "address",
                    "name": "newOwner",
                    "type": "address"
                }
            ],
            "name": "transferOwnershipProjectToken",
            "outputs": [],
            "stateMutability": "nonpayable",
            "type": "function"
        },
        {
            "inputs": [],
            "name": "unpause",
            "outputs": [],
            "stateMutability": "nonpayable",
            "type": "function"
        },
        {
            "inputs": [],
            "name": "unpauseProjectToken",
            "outputs": [],
            "stateMutability": "nonpayable",
            "type": "function"
        },
        {
            "inputs": [
                {
                    "internalType": "uint256",
                    "name": "projectId",
                    "type": "uint256"
                },
                {
                    "internalType": "uint256",
                    "name": "addToSupply",
                    "type": "uint256"
                }
            ],
            "name": "updateInitialSupply",
            "outputs": [],
            "stateMutability": "nonpayable",
            "type": "function"
        },
        {
            "inputs": [
                {
                    "internalType": "uint256",
                    "name": "_projectId",
                    "type": "uint256"
                },
                {
                    "internalType": "uint256",
                    "name": "addToTargetValue",
                    "type": "uint256"
                }
            ],
            "name": "updateTargetAmount",
            "outputs": [],
            "stateMutability": "nonpayable",
            "type": "function"
        },
        {
            "inputs": [
                {
                    "internalType": "string",
                    "name": "newuri",
                    "type": "string"
                }
            ],
            "name": "updateURIProjectToken",
            "outputs": [],
            "stateMutability": "nonpayable",
            "type": "function"
        },
        {
            "inputs": [
                {
                    "internalType": "uint256",
                    "name": "amount",
                    "type": "uint256"
                }
            ],
            "name": "withdrawFund",
            "outputs": [],
            "stateMutability": "nonpayable",
            "type": "function"
        }
    ],
    "bytecode": "0x60806040523480156200001157600080fd5b50604051620047363803806200473683398181016040528101906200003791906200016c565b82600160006101000a81548173ffffffffffffffffffffffffffffffffffffffff021916908373ffffffffffffffffffffffffffffffffffffffff160217905550806000806101000a81548173ffffffffffffffffffffffffffffffffffffffff021916908373ffffffffffffffffffffffffffffffffffffffff16021790555081600260006101000a81548173ffffffffffffffffffffffffffffffffffffffff021916908373ffffffffffffffffffffffffffffffffffffffff160217905550505050620001c8565b600080fd5b600073ffffffffffffffffffffffffffffffffffffffff82169050919050565b6000620001348262000107565b9050919050565b620001468162000127565b81146200015257600080fd5b50565b60008151905062000166816200013b565b92915050565b60008060006060848603121562000188576200018762000102565b5b6000620001988682870162000155565b9350506020620001ab8682870162000155565b9250506040620001be8682870162000155565b9150509250925092565b61455e80620001d86000396000f3fe608060405234801561001057600080fd5b506004361061018e5760003560e01c8063694acbf7116100de578063bbdd6b1011610097578063d92b965e11610071578063d92b965e14610428578063e231fde014610444578063f23a6e611461044e578063f2fde38b1461047e5761018e565b8063bbdd6b10146103a3578063bc197c81146103bf578063c9acbcf1146103ef5761018e565b8063694acbf71461031d5780638456cb59146103395780638da5cb5b14610343578063a0f25d3314610361578063a1dea2731461036b578063ba7d3d86146103875761018e565b8063336f56dc1161014b5780634dd11bca116101255780634dd11bca146102ab5780634eedb7d9146102c75780635c975abb146102e357806362c956dc146103015761018e565b8063336f56dc146102675780633f4ba83a146102835780634b60ce771461028d5761018e565b806301ffc9a7146101935780630cee1725146101c357806310099e80146101df5780632969be22146101fb5780633013ce2914610219578063315f1a4114610237575b600080fd5b6101ad60048036038101906101a89190612f55565b61049a565b6040516101ba9190612f9d565b60405180910390f35b6101dd60048036038101906101d89190612fee565b610514565b005b6101f960048036038101906101f49190613161565b610774565b005b610203610892565b60405161021091906131b9565b60405180910390f35b610221610898565b60405161022e9190613215565b60405180910390f35b610251600480360381019061024c9190613230565b6108be565b60405161025e91906131b9565b60405180910390f35b610281600480360381019061027c9190613230565b6108dc565b005b61028b610bc9565b005b610295610cb9565b6040516102a29190613215565b60405180910390f35b6102c560048036038101906102c09190613230565b610cdd565b005b6102e160048036038101906102dc9190613230565b610f03565b005b6102eb6111fd565b6040516102f89190612f9d565b60405180910390f35b61031b60048036038101906103169190613230565b611210565b005b61033760048036038101906103329190612fee565b6114c5565b005b610341611807565b005b61034b6118f7565b6040516103589190613215565b60405180910390f35b61036961191d565b005b6103856004803603810190610380919061329c565b611a2f565b005b6103a1600480360381019061039c919061336a565b611b4d565b005b6103bd60048036038101906103b89190613230565b611eef565b005b6103d960048036038101906103d491906134c9565b61239b565b6040516103e691906135a7565b60405180910390f35b61040960048036038101906104049190612fee565b6123b0565b60405161041f9a99989796959493929190613639565b60405180910390f35b610442600480360381019061043d9190613230565b612411565b005b61044c612a21565b005b610468600480360381019061046391906136d5565b612b33565b60405161047591906135a7565b60405180910390f35b6104986004803603810190610493919061329c565b612b48565b005b60007f4e2312e0000000000000000000000000000000000000000000000000000000007bffffffffffffffffffffffffffffffffffffffffffffffffffffffff1916827bffffffffffffffffffffffffffffffffffffffffffffffffffffffff1916148061050d575061050c82612d07565b5b9050919050565b600160009054906101000a900473ffffffffffffffffffffffffffffffffffffffff1673ffffffffffffffffffffffffffffffffffffffff163373ffffffffffffffffffffffffffffffffffffffff16146105a4576040517f08c379a000000000000000000000000000000000000000000000000000000000815260040161059b906137ef565b60405180910390fd5b80600260009054906101000a900473ffffffffffffffffffffffffffffffffffffffff1673ffffffffffffffffffffffffffffffffffffffff166370a08231306040518263ffffffff1660e01b81526004016106009190613215565b602060405180830381865afa15801561061d573d6000803e3d6000fd5b505050506040513d601f19601f820116820180604052508101906106419190613824565b1015610682576040517f08c379a00000000000000000000000000000000000000000000000000000000081526004016106799061389d565b60405180910390fd5b600260009054906101000a900473ffffffffffffffffffffffffffffffffffffffff1673ffffffffffffffffffffffffffffffffffffffff1663a9059cbb33836040518363ffffffff1660e01b81526004016106df9291906138bd565b6020604051808303816000875af11580156106fe573d6000803e3d6000fd5b505050506040513d601f19601f820116820180604052508101906107229190613912565b503373ffffffffffffffffffffffffffffffffffffffff167fb9b31c80a9b5645645322285c09cc2136e7b42c9165064a76343d8d27b97b6d38260405161076991906131b9565b60405180910390a250565b600160009054906101000a900473ffffffffffffffffffffffffffffffffffffffff1673ffffffffffffffffffffffffffffffffffffffff163373ffffffffffffffffffffffffffffffffffffffff1614610804576040517f08c379a00000000000000000000000000000000000000000000000000000000081526004016107fb906137ef565b60405180910390fd5b60008054906101000a900473ffffffffffffffffffffffffffffffffffffffff1673ffffffffffffffffffffffffffffffffffffffff166302fe5305826040518263ffffffff1660e01b815260040161085d91906139ad565b600060405180830381600087803b15801561087757600080fd5b505af115801561088b573d6000803e3d6000fd5b5050505050565b60035481565b600260009054906101000a900473ffffffffffffffffffffffffffffffffffffffff1681565b6000816108ca84612d71565b6108d491906139fe565b905092915050565b600460009054906101000a900460ff161561092c576040517f08c379a000000000000000000000000000000000000000000000000000000000815260040161092390613a8c565b60405180910390fd5b6000600560008481526020019081526020016000206007015403610985576040517f08c379a000000000000000000000000000000000000000000000000000000000815260040161097c90613af8565b60405180910390fd5b60006002811115610999576109986135c2565b5b6005600084815260200190815260200160002060090160009054906101000a900460ff1660028111156109cf576109ce6135c2565b5b14610a0f576040517f08c379a0000000000000000000000000000000000000000000000000000000008152600401610a0690613b8a565b60405180910390fd5b6000816005600085815260200190815260200160002060060154610a3391906139fe565b9050600260009054906101000a900473ffffffffffffffffffffffffffffffffffffffff1673ffffffffffffffffffffffffffffffffffffffff166323b872dd3330846040518463ffffffff1660e01b8152600401610a9493929190613baa565b6020604051808303816000875af1158015610ab3573d6000803e3d6000fd5b505050506040513d601f19601f82011682018060405250810190610ad79190613912565b5060008054906101000a900473ffffffffffffffffffffffffffffffffffffffff1673ffffffffffffffffffffffffffffffffffffffff1663f242432a303386866040518563ffffffff1660e01b8152600401610b379493929190613c18565b600060405180830381600087803b158015610b5157600080fd5b505af1158015610b65573d6000803e3d6000fd5b50505050610b738382612dbe565b823373ffffffffffffffffffffffffffffffffffffffff167facbbd9bff4a88b2e7389146fca372e24412ca4ec5af660734df4c83c5856224a8484604051610bbc929190613c70565b60405180910390a3505050565b600160009054906101000a900473ffffffffffffffffffffffffffffffffffffffff1673ffffffffffffffffffffffffffffffffffffffff163373ffffffffffffffffffffffffffffffffffffffff1614610c59576040517f08c379a0000000000000000000000000000000000000000000000000000000008152600401610c50906137ef565b60405180910390fd5b6000600460006101000a81548160ff0219169083151502179055503373ffffffffffffffffffffffffffffffffffffffff167f5db9ee0a495bf2e6ff9c91a7834c1ba4fdd244a5e8aa4e537bd38aeae4b073aa60405160405180910390a2565b60008054906101000a900473ffffffffffffffffffffffffffffffffffffffff1681565b600160009054906101000a900473ffffffffffffffffffffffffffffffffffffffff1673ffffffffffffffffffffffffffffffffffffffff163373ffffffffffffffffffffffffffffffffffffffff1614610d6d576040517f08c379a0000000000000000000000000000000000000000000000000000000008152600401610d64906137ef565b60405180910390fd5b60006002811115610d8157610d806135c2565b5b6005600084815260200190815260200160002060090160009054906101000a900460ff166002811115610db757610db66135c2565b5b14610df7576040517f08c379a0000000000000000000000000000000000000000000000000000000008152600401610dee90613ce5565b60405180910390fd5b6000600560008481526020019081526020016000206007015403610e50576040517f08c379a0000000000000000000000000000000000000000000000000000000008152600401610e4790613af8565b60405180910390fd5b60016005600084815260200190815260200160002060090160006101000a81548160ff02191690836002811115610e8a57610e896135c2565b5b0217905550426005600084815260200190815260200160002060010181905550806005600084815260200190815260200160002060020181905550817faf68c5e861f7539d4355ad6b206d6117f04e4193c30c113bfd5a112a1119800e4283604051610ef7929190613c70565b60405180910390a25050565b600160009054906101000a900473ffffffffffffffffffffffffffffffffffffffff1673ffffffffffffffffffffffffffffffffffffffff163373ffffffffffffffffffffffffffffffffffffffff1614610f93576040517f08c379a0000000000000000000000000000000000000000000000000000000008152600401610f8a906137ef565b60405180910390fd5b6000600560008481526020019081526020016000206007015403610fec576040517f08c379a0000000000000000000000000000000000000000000000000000000008152600401610fe390613af8565b60405180910390fd5b6000600281111561100057610fff6135c2565b5b6005600084815260200190815260200160002060090160009054906101000a900460ff166002811115611036576110356135c2565b5b14611076576040517f08c379a000000000000000000000000000000000000000000000000000000000815260040161106d90613b8a565b60405180910390fd5b6000600560008481526020019081526020016000206007015490506000828261109f9190613d05565b905060008060009054906101000a900473ffffffffffffffffffffffffffffffffffffffff1673ffffffffffffffffffffffffffffffffffffffff1663bd85b039866040518263ffffffff1660e01b81526004016110fd91906131b9565b602060405180830381865afa15801561111a573d6000803e3d6000fd5b505050506040513d601f19601f8201168201806040525081019061113e9190613824565b826111499190613d68565b9050600060056000878152602001908152602001600020600601549050816005600088815260200190815260200160002060060181905550857ed4fe314618b73a96886b87817a53a5ed51433b0234c85a5e9dafe2cb7b884282846040516111b2929190613c70565b60405180910390a27fabb25663d5aa91ff39389236f8cf460156ae60ef84849d054fe10ce6d72b56438684846040516111ed93929190613d99565b60405180910390a1505050505050565b600460009054906101000a900460ff1681565b600160009054906101000a900473ffffffffffffffffffffffffffffffffffffffff1673ffffffffffffffffffffffffffffffffffffffff163373ffffffffffffffffffffffffffffffffffffffff16146112a0576040517f08c379a0000000000000000000000000000000000000000000000000000000008152600401611297906137ef565b60405180910390fd5b60006005600084815260200190815260200160002060070154036112f9576040517f08c379a00000000000000000000000000000000000000000000000000000000081526004016112f090613af8565b60405180910390fd5b6000600281111561130d5761130c6135c2565b5b6005600084815260200190815260200160002060090160009054906101000a900460ff166002811115611343576113426135c2565b5b14611383576040517f08c379a000000000000000000000000000000000000000000000000000000000815260040161137a90613b8a565b60405180910390fd5b60008060009054906101000a900473ffffffffffffffffffffffffffffffffffffffff1673ffffffffffffffffffffffffffffffffffffffff1663bd85b039846040518263ffffffff1660e01b81526004016113df91906131b9565b602060405180830381865afa1580156113fc573d6000803e3d6000fd5b505050506040513d601f19601f820116820180604052508101906114209190613824565b9050600082826114309190613d05565b905060008160056000878152602001908152602001600020600701546114569190613d68565b90506000811161146957611468613dd0565b5b806005600087815260200190815260200160002060060181905550847f27b4f9bdd92199645321cf5942dcc95c4c0027a261b22c0cadda5cdc1732cace83836040516114b6929190613c70565b60405180910390a25050505050565b600060056000838152602001908152602001600020604051806101400160405290816000820154815260200160018201548152602001600282015481526020016003820154815260200160048201548152602001600582015481526020016006820154815260200160078201548152602001600882015481526020016009820160009054906101000a900460ff166002811115611565576115646135c2565b5b6002811115611577576115766135c2565b5b81525050905060008160e00151036115c4576040517f08c379a00000000000000000000000000000000000000000000000000000000081526004016115bb90613af8565b60405180910390fd5b6002808111156115d7576115d66135c2565b5b81610120015160028111156115ef576115ee6135c2565b5b0361162f576040517f08c379a000000000000000000000000000000000000000000000000000000000815260040161162690613e4b565b60405180910390fd5b600260009054906101000a900473ffffffffffffffffffffffffffffffffffffffff1673ffffffffffffffffffffffffffffffffffffffff1663dd62ed3e33306040518363ffffffff1660e01b815260040161168c929190613e6b565b602060405180830381865afa1580156116a9573d6000803e3d6000fd5b505050506040513d601f19601f820116820180604052508101906116cd9190613824565b8160c0015114611712576040517f08c379a000000000000000000000000000000000000000000000000000000000815260040161170990613ee0565b60405180910390fd5b600260009054906101000a900473ffffffffffffffffffffffffffffffffffffffff1673ffffffffffffffffffffffffffffffffffffffff166323b872dd33308460c001516040518463ffffffff1660e01b815260040161177593929190613baa565b6020604051808303816000875af1158015611794573d6000803e3d6000fd5b505050506040513d601f19601f820116820180604052508101906117b89190613912565b506117c7828260c00151612def565b817fd4697084ca65098486509f0acb5149851447d6c6f9d86828eb606c39ead9eccf8260c001516040516117fb91906131b9565b60405180910390a25050565b600160009054906101000a900473ffffffffffffffffffffffffffffffffffffffff1673ffffffffffffffffffffffffffffffffffffffff163373ffffffffffffffffffffffffffffffffffffffff1614611897576040517f08c379a000000000000000000000000000000000000000000000000000000000815260040161188e906137ef565b60405180910390fd5b6001600460006101000a81548160ff0219169083151502179055503373ffffffffffffffffffffffffffffffffffffffff167f62e78cea01bee320cd4e420270b5ea74000d11b0c9f74754ebdbfc544b05a25860405160405180910390a2565b600160009054906101000a900473ffffffffffffffffffffffffffffffffffffffff1681565b600160009054906101000a900473ffffffffffffffffffffffffffffffffffffffff1673ffffffffffffffffffffffffffffffffffffffff163373ffffffffffffffffffffffffffffffffffffffff16146119ad576040517f08c379a00000000000000000000000000000000000000000000000000000000081526004016119a4906137ef565b60405180910390fd5b60008054906101000a900473ffffffffffffffffffffffffffffffffffffffff1673ffffffffffffffffffffffffffffffffffffffff16633f4ba83a6040518163ffffffff1660e01b8152600401600060405180830381600087803b158015611a1557600080fd5b505af1158015611a29573d6000803e3d6000fd5b50505050565b600160009054906101000a900473ffffffffffffffffffffffffffffffffffffffff1673ffffffffffffffffffffffffffffffffffffffff163373ffffffffffffffffffffffffffffffffffffffff1614611abf576040517f08c379a0000000000000000000000000000000000000000000000000000000008152600401611ab6906137ef565b60405180910390fd5b60008054906101000a900473ffffffffffffffffffffffffffffffffffffffff1673ffffffffffffffffffffffffffffffffffffffff1663f2fde38b826040518263ffffffff1660e01b8152600401611b189190613215565b600060405180830381600087803b158015611b3257600080fd5b505af1158015611b46573d6000803e3d6000fd5b5050505050565b600160009054906101000a900473ffffffffffffffffffffffffffffffffffffffff1673ffffffffffffffffffffffffffffffffffffffff163373ffffffffffffffffffffffffffffffffffffffff1614611bdd576040517f08c379a0000000000000000000000000000000000000000000000000000000008152600401611bd4906137ef565b60405180910390fd5b60008511611c20576040517f08c379a0000000000000000000000000000000000000000000000000000000008152600401611c1790613f4c565b60405180910390fd5b60008311611c63576040517f08c379a0000000000000000000000000000000000000000000000000000000008152600401611c5a90613fb8565b60405180910390fd5b60008411611ca6576040517f08c379a0000000000000000000000000000000000000000000000000000000008152600401611c9d9061404a565b60405180910390fd5b60008211611ce9576040517f08c379a0000000000000000000000000000000000000000000000000000000008152600401611ce0906140b6565b60405180910390fd5b60036000815480929190611cfc906140d6565b919050555060008054906101000a900473ffffffffffffffffffffffffffffffffffffffff1673ffffffffffffffffffffffffffffffffffffffff1663731133e93060035488856040518563ffffffff1660e01b8152600401611d629493929190614162565b600060405180830381600087803b158015611d7c57600080fd5b505af1158015611d90573d6000803e3d6000fd5b5050505060008584611da29190613d68565b90506040518061014001604052804281526020016000815260200160008152602001868152602001600081526020016000815260200182815260200185815260200184815260200160006002811115611dfe57611dfd6135c2565b5b815250600560006003548152602001908152602001600020600082015181600001556020820151816001015560408201518160020155606082015181600301556080820151816004015560a0820151816005015560c0820151816006015560e0820151816007015561010082015181600801556101208201518160090160006101000a81548160ff02191690836002811115611e9d57611e9c6135c2565b5b02179055509050506003547f34361977e06ca54fbdc73b18af812c5ffdc4792a75c6272e87a4d632164ed65d8787848888604051611edf9594939291906141ae565b60405180910390a2505050505050565b600460009054906101000a900460ff1615611f3f576040517f08c379a0000000000000000000000000000000000000000000000000000000008152600401611f3690613a8c565b60405180910390fd5b6000600560008481526020019081526020016000206007015403611f98576040517f08c379a0000000000000000000000000000000000000000000000000000000008152600401611f8f90613af8565b60405180910390fd5b600280811115611fab57611faa6135c2565b5b6005600084815260200190815260200160002060090160009054906101000a900460ff166002811115611fe157611fe06135c2565b5b03612021576040517f08c379a00000000000000000000000000000000000000000000000000000000081526004016120189061424d565b60405180910390fd5b60008060009054906101000a900473ffffffffffffffffffffffffffffffffffffffff1673ffffffffffffffffffffffffffffffffffffffff1662fdd58e30856040518363ffffffff1660e01b815260040161207e9291906138bd565b602060405180830381865afa15801561209b573d6000803e3d6000fd5b505050506040513d601f19601f820116820180604052508101906120bf9190613824565b905081811015612104576040517f08c379a00000000000000000000000000000000000000000000000000000000081526004016120fb906142b9565b60405180910390fd5b6000600560008581526020019081526020016000206006015490506000838261212d91906139fe565b905080600260009054906101000a900473ffffffffffffffffffffffffffffffffffffffff1673ffffffffffffffffffffffffffffffffffffffff1663dd62ed3e33306040518363ffffffff1660e01b815260040161218d929190613e6b565b602060405180830381865afa1580156121aa573d6000803e3d6000fd5b505050506040513d601f19601f820116820180604052508101906121ce9190613824565b101561220f576040517f08c379a000000000000000000000000000000000000000000000000000000000815260040161220690614325565b60405180910390fd5b600260009054906101000a900473ffffffffffffffffffffffffffffffffffffffff1673ffffffffffffffffffffffffffffffffffffffff166323b872dd3330846040518463ffffffff1660e01b815260040161226e93929190613baa565b6020604051808303816000875af115801561228d573d6000803e3d6000fd5b505050506040513d601f19601f820116820180604052508101906122b19190613912565b5060008054906101000a900473ffffffffffffffffffffffffffffffffffffffff1673ffffffffffffffffffffffffffffffffffffffff1663f242432a303388886040518563ffffffff1660e01b81526004016123119493929190613c18565b600060405180830381600087803b15801561232b57600080fd5b505af115801561233f573d6000803e3d6000fd5b505050503373ffffffffffffffffffffffffffffffffffffffff16857fd8bfff1e3d8f91061247a057feb4043253c151f61cd141a3868f11559be5572f868460405161238c929190613c70565b60405180910390a35050505050565b600063bc197c8160e01b905095945050505050565b60056020528060005260406000206000915090508060000154908060010154908060020154908060030154908060040154908060050154908060060154908060070154908060080154908060090160009054906101000a900460ff1690508a565b600460009054906101000a900460ff1615612461576040517f08c379a000000000000000000000000000000000000000000000000000000000815260040161245890613a8c565b60405180910390fd5b60006005600084815260200190815260200160002060070154036124ba576040517f08c379a00000000000000000000000000000000000000000000000000000000081526004016124b190613af8565b60405180910390fd5b80600260009054906101000a900473ffffffffffffffffffffffffffffffffffffffff1673ffffffffffffffffffffffffffffffffffffffff1663dd62ed3e33306040518363ffffffff1660e01b8152600401612518929190613e6b565b602060405180830381865afa158015612535573d6000803e3d6000fd5b505050506040513d601f19601f820116820180604052508101906125599190613824565b101561259a576040517f08c379a000000000000000000000000000000000000000000000000000000000815260040161259190614325565b60405180910390fd5b600260009054906101000a900473ffffffffffffffffffffffffffffffffffffffff1673ffffffffffffffffffffffffffffffffffffffff166323b872dd3330846040518463ffffffff1660e01b81526004016125f993929190613baa565b6020604051808303816000875af1158015612618573d6000803e3d6000fd5b505050506040513d601f19601f8201168201806040525081019061263c9190613912565b5060006005600084815260200190815260200160002060090160009054906101000a900460ff16905060016002811115612679576126786135c2565b5b81600281111561268c5761268b6135c2565b5b14806126bb57506002808111156126a6576126a56135c2565b5b8160028111156126b9576126b86135c2565b5b145b156129cd576000826126cc85612d71565b6126d691906139fe565b9050600160028111156126ec576126eb6135c2565b5b8260028111156126ff576126fe6135c2565b5b0361278357600061270f85612d71565b9050600060056000878152602001908152602001600020600601549050816005600088815260200190815260200160002060060181905550857ed4fe314618b73a96886b87817a53a5ed51433b0234c85a5e9dafe2cb7b88428284604051612778929190613c70565b60405180910390a250505b80600560008681526020019081526020016000206005015410156127dc576040517f08c379a00000000000000000000000000000000000000000000000000000000081526004016127d3906143b7565b60405180910390fd5b8060056000868152602001908152602001600020600501600082825461280291906143d7565b925050819055506000600260009054906101000a900473ffffffffffffffffffffffffffffffffffffffff1673ffffffffffffffffffffffffffffffffffffffff166370a08231306040518263ffffffff1660e01b81526004016128669190613215565b602060405180830381865afa158015612883573d6000803e3d6000fd5b505050506040513d601f19601f820116820180604052508101906128a79190613824565b9050808211156128ec576040517f08c379a00000000000000000000000000000000000000000000000000000000081526004016128e390614457565b60405180910390fd5b600260009054906101000a900473ffffffffffffffffffffffffffffffffffffffff1673ffffffffffffffffffffffffffffffffffffffff1663a9059cbb33846040518363ffffffff1660e01b81526004016129499291906138bd565b6020604051808303816000875af1158015612968573d6000803e3d6000fd5b505050506040513d601f19601f8201168201806040525081019061298c9190613912565b507fcb89fee7c866bdaafc55841023e8e6349f498302463758486c9294938e5091dd338686856040516129c29493929190614477565b60405180910390a150505b823373ffffffffffffffffffffffffffffffffffffffff167ff0acf803d0239b9067dedaecaa8ca59b18e053c6deb8fb515176412c1a3eb4c484604051612a1491906131b9565b60405180910390a3505050565b600160009054906101000a900473ffffffffffffffffffffffffffffffffffffffff1673ffffffffffffffffffffffffffffffffffffffff163373ffffffffffffffffffffffffffffffffffffffff1614612ab1576040517f08c379a0000000000000000000000000000000000000000000000000000000008152600401612aa8906137ef565b60405180910390fd5b60008054906101000a900473ffffffffffffffffffffffffffffffffffffffff1673ffffffffffffffffffffffffffffffffffffffff16638456cb596040518163ffffffff1660e01b8152600401600060405180830381600087803b158015612b1957600080fd5b505af1158015612b2d573d6000803e3d6000fd5b50505050565b600063f23a6e6160e01b905095945050505050565b600160009054906101000a900473ffffffffffffffffffffffffffffffffffffffff1673ffffffffffffffffffffffffffffffffffffffff163373ffffffffffffffffffffffffffffffffffffffff1614612bd8576040517f08c379a0000000000000000000000000000000000000000000000000000000008152600401612bcf906137ef565b60405180910390fd5b600073ffffffffffffffffffffffffffffffffffffffff168173ffffffffffffffffffffffffffffffffffffffff1603612c47576040517f08c379a0000000000000000000000000000000000000000000000000000000008152600401612c3e90614508565b60405180910390fd5b80600160006101000a81548173ffffffffffffffffffffffffffffffffffffffff021916908373ffffffffffffffffffffffffffffffffffffffff1602179055508073ffffffffffffffffffffffffffffffffffffffff16600160009054906101000a900473ffffffffffffffffffffffffffffffffffffffff1673ffffffffffffffffffffffffffffffffffffffff167f8be0079c531659141344cd1fd0a4f28419497f9722a3daafe3b4186f6b6457e060405160405180910390a350565b60007f01ffc9a7000000000000000000000000000000000000000000000000000000007bffffffffffffffffffffffffffffffffffffffffffffffffffffffff1916827bffffffffffffffffffffffffffffffffffffffffffffffffffffffff1916149050919050565b600080600560008481526020019081526020016000206006015490506000612d9884612e20565b905060008111612da85781612db5565b8082612db49190613d05565b5b92505050919050565b80600560008481526020019081526020016000206004016000828254612de49190613d05565b925050819055505050565b80600560008481526020019081526020016000206005016000828254612e159190613d05565b925050819055505050565b60008060008054906101000a900473ffffffffffffffffffffffffffffffffffffffff1673ffffffffffffffffffffffffffffffffffffffff1663bd85b039846040518263ffffffff1660e01b8152600401612e7c91906131b9565b602060405180830381865afa158015612e99573d6000803e3d6000fd5b505050506040513d601f19601f82011682018060405250810190612ebd9190613824565b9050806005600085815260200190815260200160002060050154612ee19190613d68565b915050919050565b6000604051905090565b600080fd5b600080fd5b60007fffffffff0000000000000000000000000000000000000000000000000000000082169050919050565b612f3281612efd565b8114612f3d57600080fd5b50565b600081359050612f4f81612f29565b92915050565b600060208284031215612f6b57612f6a612ef3565b5b6000612f7984828501612f40565b91505092915050565b60008115159050919050565b612f9781612f82565b82525050565b6000602082019050612fb26000830184612f8e565b92915050565b6000819050919050565b612fcb81612fb8565b8114612fd657600080fd5b50565b600081359050612fe881612fc2565b92915050565b60006020828403121561300457613003612ef3565b5b600061301284828501612fd9565b91505092915050565b600080fd5b600080fd5b6000601f19601f8301169050919050565b7f4e487b7100000000000000000000000000000000000000000000000000000000600052604160045260246000fd5b61306e82613025565b810181811067ffffffffffffffff8211171561308d5761308c613036565b5b80604052505050565b60006130a0612ee9565b90506130ac8282613065565b919050565b600067ffffffffffffffff8211156130cc576130cb613036565b5b6130d582613025565b9050602081019050919050565b82818337600083830152505050565b60006131046130ff846130b1565b613096565b9050828152602081018484840111156131205761311f613020565b5b61312b8482856130e2565b509392505050565b600082601f8301126131485761314761301b565b5b81356131588482602086016130f1565b91505092915050565b60006020828403121561317757613176612ef3565b5b600082013567ffffffffffffffff81111561319557613194612ef8565b5b6131a184828501613133565b91505092915050565b6131b381612fb8565b82525050565b60006020820190506131ce60008301846131aa565b92915050565b600073ffffffffffffffffffffffffffffffffffffffff82169050919050565b60006131ff826131d4565b9050919050565b61320f816131f4565b82525050565b600060208201905061322a6000830184613206565b92915050565b6000806040838503121561324757613246612ef3565b5b600061325585828601612fd9565b925050602061326685828601612fd9565b9150509250929050565b613279816131f4565b811461328457600080fd5b50565b60008135905061329681613270565b92915050565b6000602082840312156132b2576132b1612ef3565b5b60006132c084828501613287565b91505092915050565b600067ffffffffffffffff8211156132e4576132e3613036565b5b6132ed82613025565b9050602081019050919050565b600061330d613308846132c9565b613096565b90508281526020810184848401111561332957613328613020565b5b6133348482856130e2565b509392505050565b600082601f8301126133515761335061301b565b5b81356133618482602086016132fa565b91505092915050565b600080600080600060a0868803121561338657613385612ef3565b5b600061339488828901612fd9565b95505060206133a588828901612fd9565b94505060406133b688828901612fd9565b93505060606133c788828901612fd9565b925050608086013567ffffffffffffffff8111156133e8576133e7612ef8565b5b6133f48882890161333c565b9150509295509295909350565b600067ffffffffffffffff82111561341c5761341b613036565b5b602082029050602081019050919050565b600080fd5b600061344561344084613401565b613096565b905080838252602082019050602084028301858111156134685761346761342d565b5b835b81811015613491578061347d8882612fd9565b84526020840193505060208101905061346a565b5050509392505050565b600082601f8301126134b0576134af61301b565b5b81356134c0848260208601613432565b91505092915050565b600080600080600060a086880312156134e5576134e4612ef3565b5b60006134f388828901613287565b955050602061350488828901613287565b945050604086013567ffffffffffffffff81111561352557613524612ef8565b5b6135318882890161349b565b935050606086013567ffffffffffffffff81111561355257613551612ef8565b5b61355e8882890161349b565b925050608086013567ffffffffffffffff81111561357f5761357e612ef8565b5b61358b8882890161333c565b9150509295509295909350565b6135a181612efd565b82525050565b60006020820190506135bc6000830184613598565b92915050565b7f4e487b7100000000000000000000000000000000000000000000000000000000600052602160045260246000fd5b60038110613602576136016135c2565b5b50565b6000819050613613826135f1565b919050565b600061362382613605565b9050919050565b61363381613618565b82525050565b60006101408201905061364f600083018d6131aa565b61365c602083018c6131aa565b613669604083018b6131aa565b613676606083018a6131aa565b61368360808301896131aa565b61369060a08301886131aa565b61369d60c08301876131aa565b6136aa60e08301866131aa565b6136b86101008301856131aa565b6136c661012083018461362a565b9b9a5050505050505050505050565b600080600080600060a086880312156136f1576136f0612ef3565b5b60006136ff88828901613287565b955050602061371088828901613287565b945050604061372188828901612fd9565b935050606061373288828901612fd9565b925050608086013567ffffffffffffffff81111561375357613752612ef8565b5b61375f8882890161333c565b9150509295509295909350565b600082825260208201905092915050565b7f4f6e6c7920636f6e7472616374206f776e65722063616e2063616c6c2074686960008201527f732066756e6374696f6e00000000000000000000000000000000000000000000602082015250565b60006137d9602a8361376c565b91506137e48261377d565b604082019050919050565b60006020820190508181036000830152613808816137cc565b9050919050565b60008151905061381e81612fc2565b92915050565b60006020828403121561383a57613839612ef3565b5b60006138488482850161380f565b91505092915050565b7f496e73756666696369656e742066756e64730000000000000000000000000000600082015250565b600061388760128361376c565b915061389282613851565b602082019050919050565b600060208201905081810360008301526138b68161387a565b9050919050565b60006040820190506138d26000830185613206565b6138df60208301846131aa565b9392505050565b6138ef81612f82565b81146138fa57600080fd5b50565b60008151905061390c816138e6565b92915050565b60006020828403121561392857613927612ef3565b5b6000613936848285016138fd565b91505092915050565b600081519050919050565b60005b8381101561396857808201518184015260208101905061394d565b60008484015250505050565b600061397f8261393f565b613989818561376c565b935061399981856020860161394a565b6139a281613025565b840191505092915050565b600060208201905081810360008301526139c78184613974565b905092915050565b7f4e487b7100000000000000000000000000000000000000000000000000000000600052601160045260246000fd5b6000613a0982612fb8565b9150613a1483612fb8565b9250828202613a2281612fb8565b91508282048414831517613a3957613a386139cf565b5b5092915050565b7f436f6e7472616374206973207061757365640000000000000000000000000000600082015250565b6000613a7660128361376c565b9150613a8182613a40565b602082019050919050565b60006020820190508181036000830152613aa581613a69565b9050919050565b7f50726f6a65637420646f6573206e6f7420657869737400000000000000000000600082015250565b6000613ae260168361376c565b9150613aed82613aac565b602082019050919050565b60006020820190508181036000830152613b1181613ad5565b9050919050565b7f50726f6a656374206973206e6f7420696e2066756e6472616973696e6720737460008201527f6167650000000000000000000000000000000000000000000000000000000000602082015250565b6000613b7460238361376c565b9150613b7f82613b18565b604082019050919050565b60006020820190508181036000830152613ba381613b67565b9050919050565b6000606082019050613bbf6000830186613206565b613bcc6020830185613206565b613bd960408301846131aa565b949350505050565b600082825260208201905092915050565b50565b6000613c02600083613be1565b9150613c0d82613bf2565b600082019050919050565b600060a082019050613c2d6000830187613206565b613c3a6020830186613206565b613c4760408301856131aa565b613c5460608301846131aa565b8181036080830152613c6581613bf5565b905095945050505050565b6000604082019050613c8560008301856131aa565b613c9260208301846131aa565b9392505050565b7f4e6f7420696e2066756e6472616973696e672073746167650000000000000000600082015250565b6000613ccf60188361376c565b9150613cda82613c99565b602082019050919050565b60006020820190508181036000830152613cfe81613cc2565b9050919050565b6000613d1082612fb8565b9150613d1b83612fb8565b9250828201905080821115613d3357613d326139cf565b5b92915050565b7f4e487b7100000000000000000000000000000000000000000000000000000000600052601260045260246000fd5b6000613d7382612fb8565b9150613d7e83612fb8565b925082613d8e57613d8d613d39565b5b828204905092915050565b6000606082019050613dae60008301866131aa565b613dbb60208301856131aa565b613dc860408301846131aa565b949350505050565b7f4e487b7100000000000000000000000000000000000000000000000000000000600052600160045260246000fd5b7f50726f6a6563742068617320616c726561647920636f6d706c65746564000000600082015250565b6000613e35601d8361376c565b9150613e4082613dff565b602082019050919050565b60006020820190508181036000830152613e6481613e28565b9050919050565b6000604082019050613e806000830185613206565b613e8d6020830184613206565b9392505050565b7f496e737566666963656e7420616c6c6f77616e63650000000000000000000000600082015250565b6000613eca60158361376c565b9150613ed582613e94565b602082019050919050565b60006020820190508181036000830152613ef981613ebd565b9050919050565b7f496e697469616c20737570706c792063616e6e6f74206265207a65726f000000600082015250565b6000613f36601d8361376c565b9150613f4182613f00565b602082019050919050565b60006020820190508181036000830152613f6581613f29565b9050919050565b7f54617267657420616d6f756e742063616e6e6f74206265207a65726f00000000600082015250565b6000613fa2601c8361376c565b9150613fad82613f6c565b602082019050919050565b60006020820190508181036000830152613fd181613f95565b9050919050565b7f46697865642070726f66697420706572206d6f6e74682063616e6e6f7420626560008201527f207a65726f000000000000000000000000000000000000000000000000000000602082015250565b600061403460258361376c565b915061403f82613fd8565b604082019050919050565b6000602082019050818103600083015261406381614027565b9050919050565b7f70726f6a656374206475726174696f6e2063616e6e6f74206265207a65726f00600082015250565b60006140a0601f8361376c565b91506140ab8261406a565b602082019050919050565b600060208201905081810360008301526140cf81614093565b9050919050565b60006140e182612fb8565b91507fffffffffffffffffffffffffffffffffffffffffffffffffffffffffffffffff8203614113576141126139cf565b5b600182019050919050565b600081519050919050565b60006141348261411e565b61413e8185613be1565b935061414e81856020860161394a565b61415781613025565b840191505092915050565b60006080820190506141776000830187613206565b61418460208301866131aa565b61419160408301856131aa565b81810360608301526141a38184614129565b905095945050505050565b600060a0820190506141c360008301886131aa565b6141d060208301876131aa565b6141dd60408301866131aa565b6141ea60608301856131aa565b6141f760808301846131aa565b9695505050505050565b7f50726f6a65637420697320636f6d706c65746564000000000000000000000000600082015250565b600061423760148361376c565b915061424282614201565b602082019050919050565b600060208201905081810360008301526142668161422a565b9050919050565b7f496e737566666963656e7420746f6b656e20617661696c61626c650000000000600082015250565b60006142a3601b8361376c565b91506142ae8261426d565b602082019050919050565b600060208201905081810360008301526142d281614296565b9050919050565b7f4e6f7420656e6f75676820616c6c6f77616e6365000000000000000000000000600082015250565b600061430f60148361376c565b915061431a826142d9565b602082019050919050565b6000602082019050818103600083015261433e81614302565b9050919050565b7f556e646572466c6f773a2050726f66697420746f2073656e74206973206c657360008201527f73207468616e207265636569766564206561726e696e67730000000000000000602082015250565b60006143a160388361376c565b91506143ac82614345565b604082019050919050565b600060208201905081810360008301526143d081614394565b9050919050565b60006143e282612fb8565b91506143ed83612fb8565b9250828203905081811115614405576144046139cf565b5b92915050565b7f4e6f7420656e6f7567682066756e647300000000000000000000000000000000600082015250565b600061444160108361376c565b915061444c8261440b565b602082019050919050565b6000602082019050818103600083015261447081614434565b9050919050565b600060808201905061448c6000830187613206565b61449960208301866131aa565b6144a660408301856131aa565b6144b360608301846131aa565b95945050505050565b7f496e76616c6964204f776e657200000000000000000000000000000000000000600082015250565b60006144f2600d8361376c565b91506144fd826144bc565b602082019050919050565b60006020820190508181036000830152614521816144e5565b905091905056fea264697066735822122064d98054f99c284989109ea59faaaeda7c80d0b5023c22f519ab9071542210b364736f6c63430008140033",
    "linkReferences": {},
    "deployedLinkReferences": {}
}