{
    "_format": "hh-sol-artifact-1",
    "contractName": "HalalHomeLoansToken",
    "sourceName": "contracts/Token.sol",
    "abi": [
        {
            "inputs": [
                {
                    "internalType": "address",
                    "name": "initialOwner",
                    "type": "address"
                }
            ],
            "stateMutability": "nonpayable",
            "type": "constructor"
        },
        {
            "inputs": [
                {
                    "internalType": "address",
                    "name": "sender",
                    "type": "address"
                },
                {
                    "internalType": "uint256",
                    "name": "balance",
                    "type": "uint256"
                },
                {
                    "internalType": "uint256",
                    "name": "needed",
                    "type": "uint256"
                },
                {
                    "internalType": "uint256",
                    "name": "tokenId",
                    "type": "uint256"
                }
            ],
            "name": "ERC1155InsufficientBalance",
            "type": "error"
        },
        {
            "inputs": [
                {
                    "internalType": "address",
                    "name": "approver",
                    "type": "address"
                }
            ],
            "name": "ERC1155InvalidApprover",
            "type": "error"
        },
        {
            "inputs": [
                {
                    "internalType": "uint256",
                    "name": "idsLength",
                    "type": "uint256"
                },
                {
                    "internalType": "uint256",
                    "name": "valuesLength",
                    "type": "uint256"
                }
            ],
            "name": "ERC1155InvalidArrayLength",
            "type": "error"
        },
        {
            "inputs": [
                {
                    "internalType": "address",
                    "name": "operator",
                    "type": "address"
                }
            ],
            "name": "ERC1155InvalidOperator",
            "type": "error"
        },
        {
            "inputs": [
                {
                    "internalType": "address",
                    "name": "receiver",
                    "type": "address"
                }
            ],
            "name": "ERC1155InvalidReceiver",
            "type": "error"
        },
        {
            "inputs": [
                {
                    "internalType": "address",
                    "name": "sender",
                    "type": "address"
                }
            ],
            "name": "ERC1155InvalidSender",
            "type": "error"
        },
        {
            "inputs": [
                {
                    "internalType": "address",
                    "name": "operator",
                    "type": "address"
                },
                {
                    "internalType": "address",
                    "name": "owner",
                    "type": "address"
                }
            ],
            "name": "ERC1155MissingApprovalForAll",
            "type": "error"
        },
        {
            "inputs": [],
            "name": "EnforcedPause",
            "type": "error"
        },
        {
            "inputs": [],
            "name": "ExpectedPause",
            "type": "error"
        },
        {
            "inputs": [
                {
                    "internalType": "address",
                    "name": "owner",
                    "type": "address"
                }
            ],
            "name": "OwnableInvalidOwner",
            "type": "error"
        },
        {
            "inputs": [
                {
                    "internalType": "address",
                    "name": "account",
                    "type": "address"
                }
            ],
            "name": "OwnableUnauthorizedAccount",
            "type": "error"
        },
        {
            "anonymous": false,
            "inputs": [
                {
                    "indexed": true,
                    "internalType": "address",
                    "name": "account",
                    "type": "address"
                },
                {
                    "indexed": true,
                    "internalType": "address",
                    "name": "operator",
                    "type": "address"
                },
                {
                    "indexed": false,
                    "internalType": "bool",
                    "name": "approved",
                    "type": "bool"
                }
            ],
            "name": "ApprovalForAll",
            "type": "event"
        },
        {
            "anonymous": false,
            "inputs": [
                {
                    "indexed": true,
                    "internalType": "address",
                    "name": "previousOwner",
                    "type": "address"
                },
                {
                    "indexed": true,
                    "internalType": "address",
                    "name": "newOwner",
                    "type": "address"
                }
            ],
            "name": "OwnershipTransferred",
            "type": "event"
        },
        {
            "anonymous": false,
            "inputs": [
                {
                    "indexed": false,
                    "internalType": "address",
                    "name": "account",
                    "type": "address"
                }
            ],
            "name": "Paused",
            "type": "event"
        },
        {
            "anonymous": false,
            "inputs": [
                {
                    "indexed": true,
                    "internalType": "address",
                    "name": "operator",
                    "type": "address"
                },
                {
                    "indexed": true,
                    "internalType": "address",
                    "name": "from",
                    "type": "address"
                },
                {
                    "indexed": true,
                    "internalType": "address",
                    "name": "to",
                    "type": "address"
                },
                {
                    "indexed": false,
                    "internalType": "uint256[]",
                    "name": "ids",
                    "type": "uint256[]"
                },
                {
                    "indexed": false,
                    "internalType": "uint256[]",
                    "name": "values",
                    "type": "uint256[]"
                }
            ],
            "name": "TransferBatch",
            "type": "event"
        },
        {
            "anonymous": false,
            "inputs": [
                {
                    "indexed": true,
                    "internalType": "address",
                    "name": "operator",
                    "type": "address"
                },
                {
                    "indexed": true,
                    "internalType": "address",
                    "name": "from",
                    "type": "address"
                },
                {
                    "indexed": true,
                    "internalType": "address",
                    "name": "to",
                    "type": "address"
                },
                {
                    "indexed": false,
                    "internalType": "uint256",
                    "name": "id",
                    "type": "uint256"
                },
                {
                    "indexed": false,
                    "internalType": "uint256",
                    "name": "value",
                    "type": "uint256"
                }
            ],
            "name": "TransferSingle",
            "type": "event"
        },
        {
            "anonymous": false,
            "inputs": [
                {
                    "indexed": false,
                    "internalType": "string",
                    "name": "value",
                    "type": "string"
                },
                {
                    "indexed": true,
                    "internalType": "uint256",
                    "name": "id",
                    "type": "uint256"
                }
            ],
            "name": "URI",
            "type": "event"
        },
        {
            "anonymous": false,
            "inputs": [
                {
                    "indexed": false,
                    "internalType": "address",
                    "name": "account",
                    "type": "address"
                }
            ],
            "name": "Unpaused",
            "type": "event"
        },
        {
            "inputs": [
                {
                    "internalType": "address",
                    "name": "account",
                    "type": "address"
                },
                {
                    "internalType": "uint256",
                    "name": "id",
                    "type": "uint256"
                }
            ],
            "name": "balanceOf",
            "outputs": [
                {
                    "internalType": "uint256",
                    "name": "",
                    "type": "uint256"
                }
            ],
            "stateMutability": "view",
            "type": "function"
        },
        {
            "inputs": [
                {
                    "internalType": "address[]",
                    "name": "accounts",
                    "type": "address[]"
                },
                {
                    "internalType": "uint256[]",
                    "name": "ids",
                    "type": "uint256[]"
                }
            ],
            "name": "balanceOfBatch",
            "outputs": [
                {
                    "internalType": "uint256[]",
                    "name": "",
                    "type": "uint256[]"
                }
            ],
            "stateMutability": "view",
            "type": "function"
        },
        {
            "inputs": [
                {
                    "internalType": "uint256",
                    "name": "id",
                    "type": "uint256"
                }
            ],
            "name": "exists",
            "outputs": [
                {
                    "internalType": "bool",
                    "name": "",
                    "type": "bool"
                }
            ],
            "stateMutability": "view",
            "type": "function"
        },
        {
            "inputs": [
                {
                    "internalType": "address",
                    "name": "account",
                    "type": "address"
                },
                {
                    "internalType": "address",
                    "name": "operator",
                    "type": "address"
                }
            ],
            "name": "isApprovedForAll",
            "outputs": [
                {
                    "internalType": "bool",
                    "name": "",
                    "type": "bool"
                }
            ],
            "stateMutability": "view",
            "type": "function"
        },
        {
            "inputs": [
                {
                    "internalType": "address",
                    "name": "account",
                    "type": "address"
                },
                {
                    "internalType": "uint256",
                    "name": "id",
                    "type": "uint256"
                },
                {
                    "internalType": "uint256",
                    "name": "amount",
                    "type": "uint256"
                },
                {
                    "internalType": "bytes",
                    "name": "data",
                    "type": "bytes"
                }
            ],
            "name": "mint",
            "outputs": [],
            "stateMutability": "nonpayable",
            "type": "function"
        },
        {
            "inputs": [
                {
                    "internalType": "address",
                    "name": "to",
                    "type": "address"
                },
                {
                    "internalType": "uint256[]",
                    "name": "ids",
                    "type": "uint256[]"
                },
                {
                    "internalType": "uint256[]",
                    "name": "amounts",
                    "type": "uint256[]"
                },
                {
                    "internalType": "bytes",
                    "name": "data",
                    "type": "bytes"
                }
            ],
            "name": "mintBatch",
            "outputs": [],
            "stateMutability": "nonpayable",
            "type": "function"
        },
        {
            "inputs": [],
            "name": "owner",
            "outputs": [
                {
                    "internalType": "address",
                    "name": "",
                    "type": "address"
                }
            ],
            "stateMutability": "view",
            "type": "function"
        },
        {
            "inputs": [],
            "name": "pause",
            "outputs": [],
            "stateMutability": "nonpayable",
            "type": "function"
        },
        {
            "inputs": [],
            "name": "paused",
            "outputs": [
                {
                    "internalType": "bool",
                    "name": "",
                    "type": "bool"
                }
            ],
            "stateMutability": "view",
            "type": "function"
        },
        {
            "inputs": [],
            "name": "renounceOwnership",
            "outputs": [],
            "stateMutability": "nonpayable",
            "type": "function"
        },
        {
            "inputs": [
                {
                    "internalType": "address",
                    "name": "from",
                    "type": "address"
                },
                {
                    "internalType": "address",
                    "name": "to",
                    "type": "address"
                },
                {
                    "internalType": "uint256[]",
                    "name": "ids",
                    "type": "uint256[]"
                },
                {
                    "internalType": "uint256[]",
                    "name": "values",
                    "type": "uint256[]"
                },
                {
                    "internalType": "bytes",
                    "name": "data",
                    "type": "bytes"
                }
            ],
            "name": "safeBatchTransferFrom",
            "outputs": [],
            "stateMutability": "nonpayable",
            "type": "function"
        },
        {
            "inputs": [
                {
                    "internalType": "address",
                    "name": "from",
                    "type": "address"
                },
                {
                    "internalType": "address",
                    "name": "to",
                    "type": "address"
                },
                {
                    "internalType": "uint256",
                    "name": "id",
                    "type": "uint256"
                },
                {
                    "internalType": "uint256",
                    "name": "value",
                    "type": "uint256"
                },
                {
                    "internalType": "bytes",
                    "name": "data",
                    "type": "bytes"
                }
            ],
            "name": "safeTransferFrom",
            "outputs": [],
            "stateMutability": "nonpayable",
            "type": "function"
        },
        {
            "inputs": [
                {
                    "internalType": "address",
                    "name": "operator",
                    "type": "address"
                },
                {
                    "internalType": "bool",
                    "name": "approved",
                    "type": "bool"
                }
            ],
            "name": "setApprovalForAll",
            "outputs": [],
            "stateMutability": "nonpayable",
            "type": "function"
        },
        {
            "inputs": [
                {
                    "internalType": "string",
                    "name": "newuri",
                    "type": "string"
                }
            ],
            "name": "setURI",
            "outputs": [],
            "stateMutability": "nonpayable",
            "type": "function"
        },
        {
            "inputs": [
                {
                    "internalType": "bytes4",
                    "name": "interfaceId",
                    "type": "bytes4"
                }
            ],
            "name": "supportsInterface",
            "outputs": [
                {
                    "internalType": "bool",
                    "name": "",
                    "type": "bool"
                }
            ],
            "stateMutability": "view",
            "type": "function"
        },
        {
            "inputs": [],
            "name": "totalSupply",
            "outputs": [
                {
                    "internalType": "uint256",
                    "name": "",
                    "type": "uint256"
                }
            ],
            "stateMutability": "view",
            "type": "function"
        },
        {
            "inputs": [
                {
                    "internalType": "uint256",
                    "name": "id",
                    "type": "uint256"
                }
            ],
            "name": "totalSupply",
            "outputs": [
                {
                    "internalType": "uint256",
                    "name": "",
                    "type": "uint256"
                }
            ],
            "stateMutability": "view",
            "type": "function"
        },
        {
            "inputs": [
                {
                    "internalType": "address",
                    "name": "newOwner",
                    "type": "address"
                }
            ],
            "name": "transferOwnership",
            "outputs": [],
            "stateMutability": "nonpayable",
            "type": "function"
        },
        {
            "inputs": [],
            "name": "unpause",
            "outputs": [],
            "stateMutability": "nonpayable",
            "type": "function"
        },
        {
            "inputs": [
                {
                    "internalType": "uint256",
                    "name": "",
                    "type": "uint256"
                }
            ],
            "name": "uri",
            "outputs": [
                {
                    "internalType": "string",
                    "name": "",
                    "type": "string"
                }
            ],
            "stateMutability": "view",
            "type": "function"
        }
    ],
    "bytecode": "0x60806040523480156200001157600080fd5b506040516200334838038062003348833981810160405281019062000037919062000248565b806040518060200160405280600081525062000059816200010360201b60201c565b50600073ffffffffffffffffffffffffffffffffffffffff168173ffffffffffffffffffffffffffffffffffffffff1603620000cf5760006040517f1e4fbdf7000000000000000000000000000000000000000000000000000000008152600401620000c691906200028b565b60405180910390fd5b620000e0816200011860201b60201c565b506000600360146101000a81548160ff0219169083151502179055505062000609565b806002908162000114919062000522565b5050565b6000600360009054906101000a900473ffffffffffffffffffffffffffffffffffffffff16905081600360006101000a81548173ffffffffffffffffffffffffffffffffffffffff021916908373ffffffffffffffffffffffffffffffffffffffff1602179055508173ffffffffffffffffffffffffffffffffffffffff168173ffffffffffffffffffffffffffffffffffffffff167f8be0079c531659141344cd1fd0a4f28419497f9722a3daafe3b4186f6b6457e060405160405180910390a35050565b600080fd5b600073ffffffffffffffffffffffffffffffffffffffff82169050919050565b60006200021082620001e3565b9050919050565b620002228162000203565b81146200022e57600080fd5b50565b600081519050620002428162000217565b92915050565b600060208284031215620002615762000260620001de565b5b6000620002718482850162000231565b91505092915050565b620002858162000203565b82525050565b6000602082019050620002a260008301846200027a565b92915050565b600081519050919050565b7f4e487b7100000000000000000000000000000000000000000000000000000000600052604160045260246000fd5b7f4e487b7100000000000000000000000000000000000000000000000000000000600052602260045260246000fd5b600060028204905060018216806200032a57607f821691505b60208210810362000340576200033f620002e2565b5b50919050565b60008190508160005260206000209050919050565b60006020601f8301049050919050565b600082821b905092915050565b600060088302620003aa7fffffffffffffffffffffffffffffffffffffffffffffffffffffffffffffffff826200036b565b620003b686836200036b565b95508019841693508086168417925050509392505050565b6000819050919050565b6000819050919050565b600062000403620003fd620003f784620003ce565b620003d8565b620003ce565b9050919050565b6000819050919050565b6200041f83620003e2565b620004376200042e826200040a565b84845462000378565b825550505050565b600090565b6200044e6200043f565b6200045b81848462000414565b505050565b5b8181101562000483576200047760008262000444565b60018101905062000461565b5050565b601f821115620004d2576200049c8162000346565b620004a7846200035b565b81016020851015620004b7578190505b620004cf620004c6856200035b565b83018262000460565b50505b505050565b600082821c905092915050565b6000620004f760001984600802620004d7565b1980831691505092915050565b6000620005128383620004e4565b9150826002028217905092915050565b6200052d82620002a8565b67ffffffffffffffff811115620005495762000548620002b3565b5b62000555825462000311565b6200056282828562000487565b600060209050601f8311600181146200059a576000841562000585578287015190505b62000591858262000504565b86555062000601565b601f198416620005aa8662000346565b60005b82811015620005d457848901518255600182019150602085019450602081019050620005ad565b86831015620005f45784890151620005f0601f891682620004e4565b8355505b6001600288020188555050505b505050505050565b612d2f80620006196000396000f3fe608060405234801561001057600080fd5b506004361061012b5760003560e01c80635c975abb116100ad578063a22cb46511610071578063a22cb46514610308578063bd85b03914610324578063e985e9c514610354578063f242432a14610384578063f2fde38b146103a05761012b565b80635c975abb1461029c578063715018a6146102ba578063731133e9146102c45780638456cb59146102e05780638da5cb5b146102ea5761012b565b80631f7fdffa116100f45780631f7fdffa146101fa5780632eb2c2d6146102165780633f4ba83a146102325780634e1273f41461023c5780634f558e791461026c5761012b565b8062fdd58e1461013057806301ffc9a71461016057806302fe5305146101905780630e89341c146101ac57806318160ddd146101dc575b600080fd5b61014a60048036038101906101459190611c6d565b6103bc565b6040516101579190611cbc565b60405180910390f35b61017a60048036038101906101759190611d2f565b610416565b6040516101879190611d77565b60405180910390f35b6101aa60048036038101906101a59190611ed8565b6104f8565b005b6101c660048036038101906101c19190611f21565b61050c565b6040516101d39190611fcd565b60405180910390f35b6101e46105a0565b6040516101f19190611cbc565b60405180910390f35b610214600480360381019061020f9190612158565b6105aa565b005b610230600480360381019061022b9190612213565b6105c4565b005b61023a61066c565b005b610256600480360381019061025191906123a5565b61067e565b60405161026391906124db565b60405180910390f35b61028660048036038101906102819190611f21565b61078d565b6040516102939190611d77565b60405180910390f35b6102a46107a1565b6040516102b19190611d77565b60405180910390f35b6102c26107b8565b005b6102de60048036038101906102d991906124fd565b6107cc565b005b6102e86107e6565b005b6102f26107f8565b6040516102ff919061258f565b60405180910390f35b610322600480360381019061031d91906125d6565b610822565b005b61033e60048036038101906103399190611f21565b610838565b60405161034b9190611cbc565b60405180910390f35b61036e60048036038101906103699190612616565b610855565b60405161037b9190611d77565b60405180910390f35b61039e60048036038101906103999190612656565b6108e9565b005b6103ba60048036038101906103b591906126ed565b610991565b005b600080600083815260200190815260200160002060008473ffffffffffffffffffffffffffffffffffffffff1673ffffffffffffffffffffffffffffffffffffffff16815260200190815260200160002054905092915050565b60007fd9b67a26000000000000000000000000000000000000000000000000000000007bffffffffffffffffffffffffffffffffffffffffffffffffffffffff1916827bffffffffffffffffffffffffffffffffffffffffffffffffffffffff191614806104e157507f0e89341c000000000000000000000000000000000000000000000000000000007bffffffffffffffffffffffffffffffffffffffffffffffffffffffff1916827bffffffffffffffffffffffffffffffffffffffffffffffffffffffff1916145b806104f157506104f082610a17565b5b9050919050565b610500610a81565b61050981610b08565b50565b60606002805461051b90612749565b80601f016020809104026020016040519081016040528092919081815260200182805461054790612749565b80156105945780601f1061056957610100808354040283529160200191610594565b820191906000526020600020905b81548152906001019060200180831161057757829003601f168201915b50505050509050919050565b6000600554905090565b6105b2610a81565b6105be84848484610b1b565b50505050565b60006105ce610ba1565b90508073ffffffffffffffffffffffffffffffffffffffff168673ffffffffffffffffffffffffffffffffffffffff161415801561061357506106118682610855565b155b156106575780866040517fe237d92200000000000000000000000000000000000000000000000000000000815260040161064e92919061277a565b60405180910390fd5b6106648686868686610ba9565b505050505050565b610674610a81565b61067c610ca1565b565b606081518351146106ca57815183516040517f5b0599910000000000000000000000000000000000000000000000000000000081526004016106c19291906127a3565b60405180910390fd5b6000835167ffffffffffffffff8111156106e7576106e6611dad565b5b6040519080825280602002602001820160405280156107155781602001602082028036833780820191505090505b50905060005b84518110156107825761075261073a8287610d0490919063ffffffff16565b61074d8387610d1890919063ffffffff16565b6103bc565b828281518110610765576107646127cc565b5b6020026020010181815250508061077b9061282a565b905061071b565b508091505092915050565b60008061079983610838565b119050919050565b6000600360149054906101000a900460ff16905090565b6107c0610a81565b6107ca6000610d2c565b565b6107d4610a81565b6107e084848484610df2565b50505050565b6107ee610a81565b6107f6610e8b565b565b6000600360009054906101000a900473ffffffffffffffffffffffffffffffffffffffff16905090565b61083461082d610ba1565b8383610eee565b5050565b600060046000838152602001908152602001600020549050919050565b6000600160008473ffffffffffffffffffffffffffffffffffffffff1673ffffffffffffffffffffffffffffffffffffffff16815260200190815260200160002060008373ffffffffffffffffffffffffffffffffffffffff1673ffffffffffffffffffffffffffffffffffffffff16815260200190815260200160002060009054906101000a900460ff16905092915050565b60006108f3610ba1565b90508073ffffffffffffffffffffffffffffffffffffffff168673ffffffffffffffffffffffffffffffffffffffff161415801561093857506109368682610855565b155b1561097c5780866040517fe237d92200000000000000000000000000000000000000000000000000000000815260040161097392919061277a565b60405180910390fd5b610989868686868661105e565b505050505050565b610999610a81565b600073ffffffffffffffffffffffffffffffffffffffff168173ffffffffffffffffffffffffffffffffffffffff1603610a0b5760006040517f1e4fbdf7000000000000000000000000000000000000000000000000000000008152600401610a02919061258f565b60405180910390fd5b610a1481610d2c565b50565b60007f01ffc9a7000000000000000000000000000000000000000000000000000000007bffffffffffffffffffffffffffffffffffffffffffffffffffffffff1916827bffffffffffffffffffffffffffffffffffffffffffffffffffffffff1916149050919050565b610a89610ba1565b73ffffffffffffffffffffffffffffffffffffffff16610aa76107f8565b73ffffffffffffffffffffffffffffffffffffffff1614610b0657610aca610ba1565b6040517f118cdaa7000000000000000000000000000000000000000000000000000000008152600401610afd919061258f565b60405180910390fd5b565b8060029081610b179190612a1e565b5050565b600073ffffffffffffffffffffffffffffffffffffffff168473ffffffffffffffffffffffffffffffffffffffff1603610b8d5760006040517f57f447ce000000000000000000000000000000000000000000000000000000008152600401610b84919061258f565b60405180910390fd5b610b9b600085858585611169565b50505050565b600033905090565b600073ffffffffffffffffffffffffffffffffffffffff168473ffffffffffffffffffffffffffffffffffffffff1603610c1b5760006040517f57f447ce000000000000000000000000000000000000000000000000000000008152600401610c12919061258f565b60405180910390fd5b600073ffffffffffffffffffffffffffffffffffffffff168573ffffffffffffffffffffffffffffffffffffffff1603610c8d5760006040517f01a83514000000000000000000000000000000000000000000000000000000008152600401610c84919061258f565b60405180910390fd5b610c9a8585858585611169565b5050505050565b610ca961121b565b6000600360146101000a81548160ff0219169083151502179055507f5db9ee0a495bf2e6ff9c91a7834c1ba4fdd244a5e8aa4e537bd38aeae4b073aa610ced610ba1565b604051610cfa919061258f565b60405180910390a1565b600060208202602084010151905092915050565b600060208202602084010151905092915050565b6000600360009054906101000a900473ffffffffffffffffffffffffffffffffffffffff16905081600360006101000a81548173ffffffffffffffffffffffffffffffffffffffff021916908373ffffffffffffffffffffffffffffffffffffffff1602179055508173ffffffffffffffffffffffffffffffffffffffff168173ffffffffffffffffffffffffffffffffffffffff167f8be0079c531659141344cd1fd0a4f28419497f9722a3daafe3b4186f6b6457e060405160405180910390a35050565b600073ffffffffffffffffffffffffffffffffffffffff168473ffffffffffffffffffffffffffffffffffffffff1603610e645760006040517f57f447ce000000000000000000000000000000000000000000000000000000008152600401610e5b919061258f565b60405180910390fd5b600080610e71858561125b565b91509150610e83600087848487611169565b505050505050565b610e9361128b565b6001600360146101000a81548160ff0219169083151502179055507f62e78cea01bee320cd4e420270b5ea74000d11b0c9f74754ebdbfc544b05a258610ed7610ba1565b604051610ee4919061258f565b60405180910390a1565b600073ffffffffffffffffffffffffffffffffffffffff168273ffffffffffffffffffffffffffffffffffffffff1603610f605760006040517fced3e100000000000000000000000000000000000000000000000000000000008152600401610f57919061258f565b60405180910390fd5b80600160008573ffffffffffffffffffffffffffffffffffffffff1673ffffffffffffffffffffffffffffffffffffffff16815260200190815260200160002060008473ffffffffffffffffffffffffffffffffffffffff1673ffffffffffffffffffffffffffffffffffffffff16815260200190815260200160002060006101000a81548160ff0219169083151502179055508173ffffffffffffffffffffffffffffffffffffffff168373ffffffffffffffffffffffffffffffffffffffff167f17307eab39ab6107e8899845ad3d59bd9653f200f220920489ca2b5937696c31836040516110519190611d77565b60405180910390a3505050565b600073ffffffffffffffffffffffffffffffffffffffff168473ffffffffffffffffffffffffffffffffffffffff16036110d05760006040517f57f447ce0000000000000000000000000000000000000000000000000000000081526004016110c7919061258f565b60405180910390fd5b600073ffffffffffffffffffffffffffffffffffffffff168573ffffffffffffffffffffffffffffffffffffffff16036111425760006040517f01a83514000000000000000000000000000000000000000000000000000000008152600401611139919061258f565b60405180910390fd5b60008061114f858561125b565b915091506111608787848487611169565b50505050505050565b611175858585856112cc565b600073ffffffffffffffffffffffffffffffffffffffff168473ffffffffffffffffffffffffffffffffffffffff16146112145760006111b3610ba1565b905060018451036112035760006111d4600086610d1890919063ffffffff16565b905060006111ec600086610d1890919063ffffffff16565b90506111fc8389898585896112de565b5050611212565b611211818787878787611492565b5b505b5050505050565b6112236107a1565b611259576040517f8dfc202b00000000000000000000000000000000000000000000000000000000815260040160405180910390fd5b565b60608060405191506001825283602083015260408201905060018152826020820152604081016040529250929050565b6112936107a1565b156112ca576040517fd93c066500000000000000000000000000000000000000000000000000000000815260040160405180910390fd5b565b6112d884848484611646565b50505050565b60008473ffffffffffffffffffffffffffffffffffffffff163b111561148a578373ffffffffffffffffffffffffffffffffffffffff1663f23a6e6187878686866040518663ffffffff1660e01b815260040161133f959493929190612b45565b6020604051808303816000875af192505050801561137b57506040513d601f19601f820116820180604052508101906113789190612bb4565b60015b6113ff573d80600081146113ab576040519150601f19603f3d011682016040523d82523d6000602084013e6113b0565b606091505b5060008151036113f757846040517f57f447ce0000000000000000000000000000000000000000000000000000000081526004016113ee919061258f565b60405180910390fd5b805181602001fd5b63f23a6e6160e01b7bffffffffffffffffffffffffffffffffffffffffffffffffffffffff1916817bffffffffffffffffffffffffffffffffffffffffffffffffffffffff19161461148857846040517f57f447ce00000000000000000000000000000000000000000000000000000000815260040161147f919061258f565b60405180910390fd5b505b505050505050565b60008473ffffffffffffffffffffffffffffffffffffffff163b111561163e578373ffffffffffffffffffffffffffffffffffffffff1663bc197c8187878686866040518663ffffffff1660e01b81526004016114f3959493929190612be1565b6020604051808303816000875af192505050801561152f57506040513d601f19601f8201168201806040525081019061152c9190612bb4565b60015b6115b3573d806000811461155f576040519150601f19603f3d011682016040523d82523d6000602084013e611564565b606091505b5060008151036115ab57846040517f57f447ce0000000000000000000000000000000000000000000000000000000081526004016115a2919061258f565b60405180910390fd5b805181602001fd5b63bc197c8160e01b7bffffffffffffffffffffffffffffffffffffffffffffffffffffffff1916817bffffffffffffffffffffffffffffffffffffffffffffffffffffffff19161461163c57846040517f57f447ce000000000000000000000000000000000000000000000000000000008152600401611633919061258f565b60405180910390fd5b505b505050505050565b611652848484846117fd565b600073ffffffffffffffffffffffffffffffffffffffff168473ffffffffffffffffffffffffffffffffffffffff1603611732576000805b83518110156117165760008382815181106116a8576116a76127cc565b5b6020026020010151905080600460008785815181106116ca576116c96127cc565b5b6020026020010151815260200190815260200160002060008282546116ef9190612c49565b9250508190555080836117029190612c49565b9250508061170f9061282a565b905061168a565b5080600560008282546117299190612c49565b92505081905550505b600073ffffffffffffffffffffffffffffffffffffffff168373ffffffffffffffffffffffffffffffffffffffff16036117f7576000805b83518110156117e4576000838281518110611788576117876127cc565b5b6020026020010151905080600460008785815181106117aa576117a96127cc565b5b6020026020010151815260200190815260200160002060008282540392505081905550808301925050806117dd9061282a565b905061176a565b5080600560008282540392505081905550505b50505050565b61180561128b565b61181184848484611817565b50505050565b805182511461186157815181516040517f5b0599910000000000000000000000000000000000000000000000000000000081526004016118589291906127a3565b60405180910390fd5b600061186b610ba1565b905060005b8351811015611a8057600061188e8286610d1890919063ffffffff16565b905060006118a58386610d1890919063ffffffff16565b9050600073ffffffffffffffffffffffffffffffffffffffff168873ffffffffffffffffffffffffffffffffffffffff16146119d257600080600084815260200190815260200160002060008a73ffffffffffffffffffffffffffffffffffffffff1673ffffffffffffffffffffffffffffffffffffffff1681526020019081526020016000205490508181101561197a57888183856040517f03dee4c50000000000000000000000000000000000000000000000000000000081526004016119719493929190612c7d565b60405180910390fd5b81810360008085815260200190815260200160002060008b73ffffffffffffffffffffffffffffffffffffffff1673ffffffffffffffffffffffffffffffffffffffff16815260200190815260200160002081905550505b600073ffffffffffffffffffffffffffffffffffffffff168773ffffffffffffffffffffffffffffffffffffffff1614611a6d578060008084815260200190815260200160002060008973ffffffffffffffffffffffffffffffffffffffff1673ffffffffffffffffffffffffffffffffffffffff1681526020019081526020016000206000828254611a659190612c49565b925050819055505b505080611a799061282a565b9050611870565b506001835103611b3f576000611aa0600085610d1890919063ffffffff16565b90506000611ab8600085610d1890919063ffffffff16565b90508573ffffffffffffffffffffffffffffffffffffffff168773ffffffffffffffffffffffffffffffffffffffff168473ffffffffffffffffffffffffffffffffffffffff167fc3d58168c5ae7397731d063d5bbf3d657854427343f4c083240f7aacaa2d0f628585604051611b309291906127a3565b60405180910390a45050611bbe565b8373ffffffffffffffffffffffffffffffffffffffff168573ffffffffffffffffffffffffffffffffffffffff168273ffffffffffffffffffffffffffffffffffffffff167f4a39dc06d4c0dbc64b70af90fd698a233a518aa5d07e595d983b8c0526c8f7fb8686604051611bb5929190612cc2565b60405180910390a45b5050505050565b6000604051905090565b600080fd5b600080fd5b600073ffffffffffffffffffffffffffffffffffffffff82169050919050565b6000611c0482611bd9565b9050919050565b611c1481611bf9565b8114611c1f57600080fd5b50565b600081359050611c3181611c0b565b92915050565b6000819050919050565b611c4a81611c37565b8114611c5557600080fd5b50565b600081359050611c6781611c41565b92915050565b60008060408385031215611c8457611c83611bcf565b5b6000611c9285828601611c22565b9250506020611ca385828601611c58565b9150509250929050565b611cb681611c37565b82525050565b6000602082019050611cd16000830184611cad565b92915050565b60007fffffffff0000000000000000000000000000000000000000000000000000000082169050919050565b611d0c81611cd7565b8114611d1757600080fd5b50565b600081359050611d2981611d03565b92915050565b600060208284031215611d4557611d44611bcf565b5b6000611d5384828501611d1a565b91505092915050565b60008115159050919050565b611d7181611d5c565b82525050565b6000602082019050611d8c6000830184611d68565b92915050565b600080fd5b600080fd5b6000601f19601f8301169050919050565b7f4e487b7100000000000000000000000000000000000000000000000000000000600052604160045260246000fd5b611de582611d9c565b810181811067ffffffffffffffff82111715611e0457611e03611dad565b5b80604052505050565b6000611e17611bc5565b9050611e238282611ddc565b919050565b600067ffffffffffffffff821115611e4357611e42611dad565b5b611e4c82611d9c565b9050602081019050919050565b82818337600083830152505050565b6000611e7b611e7684611e28565b611e0d565b905082815260208101848484011115611e9757611e96611d97565b5b611ea2848285611e59565b509392505050565b600082601f830112611ebf57611ebe611d92565b5b8135611ecf848260208601611e68565b91505092915050565b600060208284031215611eee57611eed611bcf565b5b600082013567ffffffffffffffff811115611f0c57611f0b611bd4565b5b611f1884828501611eaa565b91505092915050565b600060208284031215611f3757611f36611bcf565b5b6000611f4584828501611c58565b91505092915050565b600081519050919050565b600082825260208201905092915050565b60005b83811015611f88578082015181840152602081019050611f6d565b60008484015250505050565b6000611f9f82611f4e565b611fa98185611f59565b9350611fb9818560208601611f6a565b611fc281611d9c565b840191505092915050565b60006020820190508181036000830152611fe78184611f94565b905092915050565b600067ffffffffffffffff82111561200a57612009611dad565b5b602082029050602081019050919050565b600080fd5b600061203361202e84611fef565b611e0d565b905080838252602082019050602084028301858111156120565761205561201b565b5b835b8181101561207f578061206b8882611c58565b845260208401935050602081019050612058565b5050509392505050565b600082601f83011261209e5761209d611d92565b5b81356120ae848260208601612020565b91505092915050565b600067ffffffffffffffff8211156120d2576120d1611dad565b5b6120db82611d9c565b9050602081019050919050565b60006120fb6120f6846120b7565b611e0d565b90508281526020810184848401111561211757612116611d97565b5b612122848285611e59565b509392505050565b600082601f83011261213f5761213e611d92565b5b813561214f8482602086016120e8565b91505092915050565b6000806000806080858703121561217257612171611bcf565b5b600061218087828801611c22565b945050602085013567ffffffffffffffff8111156121a1576121a0611bd4565b5b6121ad87828801612089565b935050604085013567ffffffffffffffff8111156121ce576121cd611bd4565b5b6121da87828801612089565b925050606085013567ffffffffffffffff8111156121fb576121fa611bd4565b5b6122078782880161212a565b91505092959194509250565b600080600080600060a0868803121561222f5761222e611bcf565b5b600061223d88828901611c22565b955050602061224e88828901611c22565b945050604086013567ffffffffffffffff81111561226f5761226e611bd4565b5b61227b88828901612089565b935050606086013567ffffffffffffffff81111561229c5761229b611bd4565b5b6122a888828901612089565b925050608086013567ffffffffffffffff8111156122c9576122c8611bd4565b5b6122d58882890161212a565b9150509295509295909350565b600067ffffffffffffffff8211156122fd576122fc611dad565b5b602082029050602081019050919050565b600061232161231c846122e2565b611e0d565b905080838252602082019050602084028301858111156123445761234361201b565b5b835b8181101561236d57806123598882611c22565b845260208401935050602081019050612346565b5050509392505050565b600082601f83011261238c5761238b611d92565b5b813561239c84826020860161230e565b91505092915050565b600080604083850312156123bc576123bb611bcf565b5b600083013567ffffffffffffffff8111156123da576123d9611bd4565b5b6123e685828601612377565b925050602083013567ffffffffffffffff81111561240757612406611bd4565b5b61241385828601612089565b9150509250929050565b600081519050919050565b600082825260208201905092915050565b6000819050602082019050919050565b61245281611c37565b82525050565b60006124648383612449565b60208301905092915050565b6000602082019050919050565b60006124888261241d565b6124928185612428565b935061249d83612439565b8060005b838110156124ce5781516124b58882612458565b97506124c083612470565b9250506001810190506124a1565b5085935050505092915050565b600060208201905081810360008301526124f5818461247d565b905092915050565b6000806000806080858703121561251757612516611bcf565b5b600061252587828801611c22565b945050602061253687828801611c58565b935050604061254787828801611c58565b925050606085013567ffffffffffffffff81111561256857612567611bd4565b5b6125748782880161212a565b91505092959194509250565b61258981611bf9565b82525050565b60006020820190506125a46000830184612580565b92915050565b6125b381611d5c565b81146125be57600080fd5b50565b6000813590506125d0816125aa565b92915050565b600080604083850312156125ed576125ec611bcf565b5b60006125fb85828601611c22565b925050602061260c858286016125c1565b9150509250929050565b6000806040838503121561262d5761262c611bcf565b5b600061263b85828601611c22565b925050602061264c85828601611c22565b9150509250929050565b600080600080600060a0868803121561267257612671611bcf565b5b600061268088828901611c22565b955050602061269188828901611c22565b94505060406126a288828901611c58565b93505060606126b388828901611c58565b925050608086013567ffffffffffffffff8111156126d4576126d3611bd4565b5b6126e08882890161212a565b9150509295509295909350565b60006020828403121561270357612702611bcf565b5b600061271184828501611c22565b91505092915050565b7f4e487b7100000000000000000000000000000000000000000000000000000000600052602260045260246000fd5b6000600282049050600182168061276157607f821691505b6020821081036127745761277361271a565b5b50919050565b600060408201905061278f6000830185612580565b61279c6020830184612580565b9392505050565b60006040820190506127b86000830185611cad565b6127c56020830184611cad565b9392505050565b7f4e487b7100000000000000000000000000000000000000000000000000000000600052603260045260246000fd5b7f4e487b7100000000000000000000000000000000000000000000000000000000600052601160045260246000fd5b600061283582611c37565b91507fffffffffffffffffffffffffffffffffffffffffffffffffffffffffffffffff8203612867576128666127fb565b5b600182019050919050565b60008190508160005260206000209050919050565b60006020601f8301049050919050565b600082821b905092915050565b6000600883026128d47fffffffffffffffffffffffffffffffffffffffffffffffffffffffffffffffff82612897565b6128de8683612897565b95508019841693508086168417925050509392505050565b6000819050919050565b600061291b61291661291184611c37565b6128f6565b611c37565b9050919050565b6000819050919050565b61293583612900565b61294961294182612922565b8484546128a4565b825550505050565b600090565b61295e612951565b61296981848461292c565b505050565b5b8181101561298d57612982600082612956565b60018101905061296f565b5050565b601f8211156129d2576129a381612872565b6129ac84612887565b810160208510156129bb578190505b6129cf6129c785612887565b83018261296e565b50505b505050565b600082821c905092915050565b60006129f5600019846008026129d7565b1980831691505092915050565b6000612a0e83836129e4565b9150826002028217905092915050565b612a2782611f4e565b67ffffffffffffffff811115612a4057612a3f611dad565b5b612a4a8254612749565b612a55828285612991565b600060209050601f831160018114612a885760008415612a76578287015190505b612a808582612a02565b865550612ae8565b601f198416612a9686612872565b60005b82811015612abe57848901518255600182019150602085019450602081019050612a99565b86831015612adb5784890151612ad7601f8916826129e4565b8355505b6001600288020188555050505b505050505050565b600081519050919050565b600082825260208201905092915050565b6000612b1782612af0565b612b218185612afb565b9350612b31818560208601611f6a565b612b3a81611d9c565b840191505092915050565b600060a082019050612b5a6000830188612580565b612b676020830187612580565b612b746040830186611cad565b612b816060830185611cad565b8181036080830152612b938184612b0c565b90509695505050505050565b600081519050612bae81611d03565b92915050565b600060208284031215612bca57612bc9611bcf565b5b6000612bd884828501612b9f565b91505092915050565b600060a082019050612bf66000830188612580565b612c036020830187612580565b8181036040830152612c15818661247d565b90508181036060830152612c29818561247d565b90508181036080830152612c3d8184612b0c565b90509695505050505050565b6000612c5482611c37565b9150612c5f83611c37565b9250828201905080821115612c7757612c766127fb565b5b92915050565b6000608082019050612c926000830187612580565b612c9f6020830186611cad565b612cac6040830185611cad565b612cb96060830184611cad565b95945050505050565b60006040820190508181036000830152612cdc818561247d565b90508181036020830152612cf0818461247d565b9050939250505056fea2646970667358221220acc9ed5a893015bb339649b538ade87cef909938ee91c823e6370d2a298fbaad64736f6c63430008140033",
    "linkReferences": {},
    "deployedLinkReferences": {}
}